:100000000C9458000C9480000C9480000C94800098
:100010000C9480000C9480000C9480000C94800060
:100020000C9480000C9480000C9480000C94800050
:100030000C9480000C9480000C9480000C94800040
:100040000C941C070C9480000C9480000C9480008D
:100050000C9480000C9480000C9480000C94800020
:100060000C9466070C948000000000002500280016
:100070002B00040404040404040402020202020229
:10008000030303030303010204081020408001025C
:1000900004081020010204081020000000080002DB
:1000A00001000003040700000000000000008508B4
:1000B00011241FBECFEFD8E0DEBFCDBF11E0A0E01E
:1000C000B1E0EAECFBE102C005900D92A437B10764
:1000D000D9F722E0A4E7B1E001C01D92AD35B20727
:1000E000E1F710E0C8E5D0E004C02197FE010E94CE
:1000F000B80CC735D107C9F70E94AE080C94E30DC0
:100100000C9400000895089590E0FC01E656FF4F1E
:100110002491FC01EA57FF4F3491FC01EE58FF4F48
:10012000E491EE23C9F0222339F0233001F1A8F441
:10013000213019F1223029F1F0E0EE0FFF1FE859CC
:10014000FF4FA591B4918FB7F894EC91611126C03F
:1001500030953E233C938FBF08952730A9F0283077
:10016000C9F0243049F7809180008F7D03C08091D1
:1001700080008F7780938000DFCF84B58F7784BD38
:10018000DBCF84B58F7DFBCF8091B0008F778093DC
:10019000B000D2CF8091B0008F7DF9CF3E2BDACF67
:1001A0003FB7F8948091BD019091BE01A091BF012D
:1001B000B091C00126B5A89B05C02F3F19F001964C
:1001C000A11DB11D3FBFBA2FA92F982F8827BC01B1
:1001D000CD01620F711D811D911D42E0660F771FD9
:1001E000881F991F4A95D1F708958F929F92AF92D9
:1001F000BF92CF92DF92EF92FF924B015C010E947F
:10020000D0006B017C010E94D0006C197D098E0921
:100210009F09683E734081059105A8F321E0821A89
:100220009108A108B10888EEC80E83E0D81EE11C31
:10023000F11C81149104A104B10429F7FF90EF90FF
:10024000DF90CF90BF90AF909F908F900895AF9226
:10025000BF92CF92DF92EF92FF920F931F93CF93B3
:10026000DF936C017B018B01040F151FEB015E0115
:10027000AE18BF08C017D10759F06991D601ED91AA
:10028000FC910190F081E02DC6010995892B79F749
:10029000C501DF91CF911F910F91FF90EF90DF90FB
:1002A000CF90BF90AF900895089520919501260FAB
:1002B0003327331F21323105ECF420910D02FC016C
:1002C00090E080E0243069F082E00895A0919501EB
:1002D0002191AC014B585E4FA40FB52FB11D2C934B
:1002E0000196861798F380919501680F60939501A8
:1002F00080E0089581E0089510920D0281E08093DE
:100300000C021092E70161E082E10E94840061E04A
:1003100083E10E948400E9EBF0E080818E7F80839E
:1003200080818D7F808388E48093B80085E480930A
:10033000BC0008951092C6011092C50110921402DB
:10034000109236020E947C0182E890E09093C401F2
:100350008093C30183E890E09093C2018093C10130
:100360000895CF93DF9391E0909374018823B9F0BF
:10037000C091B800D091BA008091BC008A7B809374
:10038000BC0060E082E10E94840060E083E10E94A2
:1003900084000E947C01D093BA00C093B800DF9122
:1003A000CF9108958F929F92AF92BF92CF92DF929A
:1003B000EF92FF920F931F93CF93DF93D09136026A
:1003C000D13208F0D7C0182FC09135020E94D0005A
:1003D0006B017C0180910D0281116BC082E08093E2
:1003E0000D0210930C028FEF80930B0210920A0201
:1003F000D0930902A5E1B2E0E9EEF1E080E0D81384
:1004000091C01092E8018091E801CC0FC82BC093F5
:10041000E8018091E701813009F088C01092E7017E
:100420000E94D0006B017C018091E8018093BB00A9
:1004300080910F0290911002A0911102B0911202CE
:10044000892B8A2B8B2BA1F00E94D00000910F02E8
:100450001091100220911102309112026C197D0945
:100460008E099F09061717072807390708F442C0A5
:100470008091BC0083FDD8CF85EC8093BC000E94A6
:10048000D0006B017C0180910D02823009F450C0D4
:1004900080910B028F3F09F46FC080910B02803274
:1004A00009F46CC080910B02803309F469C084E0C8
:1004B00026C080910F0290911002A0911102B0917C
:1004C0001202892B8A2B8B2B09F484CF0E94D00037
:1004D00080900F0290901002A0901102B090120232
:1004E0006C197D098E099F0986169706A806B9061C
:1004F00008F070CF80910E020E94B10185E0109249
:1005000014021092360210921302DF91CF911F91C4
:100510000F91FF90EF90DF90CF90BF90AF909F90A2
:100520008F9008959D9191938F5F69CF85EEA5CFB0
:1005300080910F0290911002A0911102B0911202CD
:10054000892B8A2B8B2B09F49ECF0E94D00000911F
:100550000F021091100220911102309112026C19B9
:100560007D098E099F09061717072807390708F024
:100570008ACFC0CF81E0C3CF80E0C1CF82E0BFCFC0
:1005800083E0BDCFCF93DF93EA01DC0111968D911B
:100590009C91DC01ED91FC910280F381E02D0995A5
:1005A000C817D90729F481E00E94D20191E0811196
:1005B00090E0892FDF91CF910895CF93DF93EC01E5
:1005C0008B818823A1F0888191E09093130280931E
:1005D0003502109214021092360281E00E94D2017C
:1005E00091E0811190E0892FDF91CF9108950E94D1
:1005F0009A0181E08B83CE010E94DD02982F811148
:10060000E2CFF1CF0895E091C6018091C501E817CE
:1006100030F4F0E0E953FE4F808190E008958FEFD1
:100620009FEF08959091C6018091C5012FEF3FEF94
:10063000981748F4E92FF0E0E953FE4F208130E0AD
:100640009F5F9093C601C90108958091C501909163
:10065000C601891B990B0895CF92DF92EF92FF920A
:100660000F931F93CF93DF937C01CB018A012091DD
:100670001302222389F0EB016B01C40ED51ECC15A9
:10068000DD0569F06991D701ED91FC910190F08150
:10069000E02DC7010995F3CF642F0E945501C801D1
:1006A000DF91CF911F910F91FF90EF90DF90CF904E
:1006B0000895CF93DF931F92CDB7DEB76983209162
:1006C00013022223F9F020913602203258F021E063
:1006D00030E0FC013383228390E080E00F90DF91D3
:1006E000CF91089580911402E82FF0E0EB5EFD4F6A
:1006F000998190838F5F809314028093360281E00A
:1007000090E0ECCF61E0CE0101960E945501F7CF59
:10071000FC01248131E030931302209335021092C2
:100720001402109236028385682B87E392E00E94C0
:10073000590381E00C94D20190E080E00895809309
:100740004A0270934B0260934C0280914302909155
:100750004402FC01248135812330310580F0208161
:1007600031E030931302209335021092140210925C
:10077000360243E050E06AE472E00C94C20208954D
:100780002F923F924F925F926F927F928F929F92A1
:10079000AF92BF92CF92DF92EF92FF920F931F938F
:1007A000CF93DF9380934A02809143029091440259
:1007B000DC0114962D913C911597232B81F02C91FF
:1007C00031E03093130220933502109214021092FC
:1007D000360241E050E06AE472E00E94C202C0903A
:1007E0004302D090440210E000E082E0A82EB12C39
:1007F000D1E033243A9495EE892E25EC922EF60121
:10080000848195817501E01AF10A8E159F0508F41F
:100810007C01D6012C900E94D0002B013C018091DC
:100820000D0281116FC0CE2DC13208F0C0E2D0930D
:100830000D0221E0C5018E199F090817190708F458
:1008400020E020930C0230920B0210920A028FEFEC
:100850008C0F80930902D093E8018091E801220C6B
:10086000282A2092E8018091E701813009F095C0A3
:100870001092E7010E94D0002B013C018091E80119
:100880008093BB0080910F0290911002A091110201
:10089000B0911202892B8A2B8B2BA1F00E94D000E1
:1008A00020910F02309110024091110250911202DA
:1008B00064197509860997092617370748075907E4
:1008C00008F441C08091BC0083FDD8CF9092BC0059
:1008D0000E94D0002B013C0180910D02813009F46F
:1008E0005FC080910A028C1710F4C0910A02A9EE31
:1008F000B1E0E7ECF1E080E08C1751F19D9191932C
:100900008F5FFACF80910F0290911002A091110297
:10091000B0911202892B8A2B8B2B09F480CF0E9475
:10092000D00020910F02309110024091110250919D
:1009300012026419750986099709261737074807AF
:10094000590708F06CCF80910E020E94B101C0E0FF
:100950001092C601C093C501CE151F0409F048C00E
:10096000F801ED5BFD4F3F01C301801B910B8354E8
:1009700092408E159F05B0F5D60111968D919C91F0
:10098000DC01ED91FC910284F385E02D0995F301E2
:100990008783FFEF6F1A7F0AE7CF8092BC0098CF62
:1009A00080910F0290911002A0911102B091120259
:1009B000892B8A2B8B2B09F48FCF0E94D00020919A
:1009C0000F023091100240911102509112026419ED
:1009D000750986099709261737074807590708F048
:1009E0007BCFB1CF0E0D1F1D0230110508F407CFCC
:1009F00080914A0290914B02982789279827DF918E
:100A0000CF911F910F91FF90EF90DF90CF90BF900B
:100A1000AF909F908F907F906F905F904F903F909E
:100A20002F900895609146027091470220914802EC
:100A300030914902622B732B7168E82FF0E0EE0FC2
:100A4000FF1FE25FFE4F80819181682B792B81E04F
:100A50000E949F0360E070E883E00E949F0370E0C3
:100A600060E082E00E949F0381E00E94C00397FF44
:100A7000FBCF80E00E94C00320914502022E02C0FD
:100A8000969587950A94E2F7222329F0811528E0AC
:100A9000920708F0906F08950F931F93CF938C01E6
:100AA000C62F0E9488036C2F6460C8010E948803CF
:100AB0006C2F6B7FC8010E94880383EC90E0019744
:100AC000F1F7CF911F910F9108950F931F93CF933B
:100AD000DF938C01D62FC42F607F642B0E944C05BE
:100AE00080E1D89FB00111246C2BC801DF91CF9118
:100AF0001F910F910C944C05CF93DF93CDB7DEB7C8
:100B000028970FB6F894DEBF0FBECDBF98E0E6E0A1
:100B1000F1E0DE01119601900D929A95E1F7909126
:100B20005502961708F46FEF262F30E0220F331F7F
:100B300041E050E04C0F5D1F240F351FF90160812B
:100B4000680F606840E08DE492E028960FB6F89454
:100B5000DEBF0FBECDBFDF91CF910C94650541E0A4
:100B60000E94650581E090E00895FC01019000205D
:100B7000E9F73197AF01481B590BBC018DE492E0B6
:100B80000C9427018F929F92AF92BF920F931F9365
:100B9000CF93DF93CDB7DEB7A1970FB6F894DEBF42
:100BA0000FBECDBF19A2423008F44AE08E010F5D9E
:100BB0001F4F842E912CB12CA12CA50194010E94D1
:100BC000960CE62FB901CA01EA30F4F4E05DD801D1
:100BD000EE938D01232B242B252B79F790E080E0D9
:100BE000109719F0CD010E94B505A1960FB6F894A3
:100BF000DEBF0FBECDBFDF91CF911F910F91BF9090
:100C0000AF909F908F900895E95CE1CF4F925F92F3
:100C10006F927F928F929F92AF92BF92CF92DF920C
:100C2000EF92FF920F931F93CF936B017C01742E71
:100C3000AC019B010E94910C882399F084E391E020
:100C4000CF911F910F91FF90EF90DF90CF90BF90C9
:100C5000AF909F908F907F906F905F904F900C948B
:100C6000B50546015701E894B7F82FEF3FEF4FE77E
:100C70005FE7C501B4010E94910C81110DC02FEFF7
:100C80003FEF4FE75FE7C501B4010E94C70A18169E
:100C90001CF488E391E0D4CF2FEF3FEF4FE75FE400
:100CA000C701B6010E941F0C18161CF48CE391E0DA
:100CB000C7CF2FEF3FEF4FE75FECC701B6010E94B0
:100CC000C70A87FDF3CF20E030E0A901C701B601D4
:100CD0000E94C70A10E000E087FF0CC041E06DE20F
:100CE0008DE492E00E946505F7FAF094F7F8F0942D
:100CF00001E010E0C0E060E070E080E09FE37C167F
:100D000041F020E030E040E251E40E94CC0ACF5FA5
:100D1000F6CFA70196010E945B0A4B015C010E947D
:100D20003E0B2B013C014AE00E94C205080F191F2F
:100D3000CC23C9F1C301B2010E946D0B9B01AC0130
:100D4000C501B4010E945A0A4B015C0141E06EE208
:100D50008DE492E00E9465050F5F1F4FC15018F1AE
:100D600020E030E040E251E4C501B4010E94240CCF
:100D70002B013C010E943E0B4B01B12CA12C4AE0FF
:100D8000C501B4010E94C205080F191FC501B401B5
:100D90000E946D0B9B01AC01C301B2010E945A0A73
:100DA0004B015C01DBCFC801CF911F910F91FF90E8
:100DB000EF90DF90CF90BF90AF909F908F907F90FB
:100DC0006F905F904F90089585ED8093BC00809167
:100DD0000F0290911002A0911102B0911202079699
:100DE000A11DB11D23E0B695A795979587952A95E6
:100DF000D1F72091BC0024FD03C010920D0208958C
:100E000040910F02509110026091110270911202F4
:100E1000452B462B472B69F30097A105B10541F0FF
:100E20002AE22A95F1F700C00197A109B109E1CFA3
:100E300080910E020C94B1011F920F920FB60F9287
:100E400011242F933F938F939F93AF93BF938091E0
:100E5000B9019091BA01A091BB01B091BC01309150
:100E6000B80123E0230F2D3758F50196A11DB11DC0
:100E70002093B8018093B9019093BA01A093BB016C
:100E8000B093BC018091BD019091BE01A091BF01C2
:100E9000B091C0010196A11DB11D8093BD01909339
:100EA000BE01A093BF01B093C001BF91AF919F91CC
:100EB0008F913F912F910F900FBE0F901F9018951B
:100EC00026E8230F0296A11DB11DD2CF1F920F92CB
:100ED0000FB60F9211242F933F934F935F936F930D
:100EE0007F938F939F93AF93BF93EF93FF938091E3
:100EF000B900887F803609F44AC0F0F5883209F4D9
:100F0000A7C018F5803109F49BC0B8F4882309F410
:100F1000F9C0883009F494C0FF91EF91BF91AF916F
:100F20009F918F917F916F915F914F913F912F9101
:100F30000F900FBE0F901F901895883109F488C04C
:100F4000803251F780930B0214C0803409F49DC0A5
:100F500040F48033B9F38833F9F680930B0285ECC3
:100F6000B0C0803509F485C0883509F496C088344E
:100F700099F60E94E406D0CF883909F48CC038F580
:100F8000883729F050F4883611F0803729F683E04D
:100F900080930D021092B70157C0883809F47BC0C6
:100FA000803919F0803809F0B7CF8091B7018032CD
:100FB00008F071C0E091B70181E08E0F8093B70116
:100FC0008091BB00F0E0E956FE4F80833DC0803B3E
:100FD00039F0E0F4803A09F479C0883A09F09CCFFE
:100FE00084E080930D021092960110929501E09199
:100FF000C301F091C40109958091950181110FC041
:1010000081E0809395011092750109C0803C09F43C
:10101000A6CF883C09F4A3CF883B09F07DCFE091AF
:10102000960181E08E0F80939601F0E0EB58FE4F21
:1010300080818093BB00909196018091950129C099
:101040008091E8018093BB0085EC8093BC0064CF65
:1010500090910A0280910902981758F5E0910A02CE
:1010600081E08E0F80930A02F0E0E751FE4F80810D
:10107000E9CFE0910A0281E08E0F80930A0280910D
:10108000BB00F0E0E751FE4F808390910A0280910F
:1010900009029817C8F285E8D8CFE0910A0281E0EA
:1010A0008E0F80930A028091BB00F0E0E751FE4F63
:1010B000808380910C0281115CCF81E08093E701F5
:1010C00084EA8093BC0010920D0226CF85EC8093B9
:1010D000BC0010920D028091B701803230F4E09193
:1010E000B701F0E0E956FE4F10826091B70170E061
:1010F000E091C101F091C20187E991E00995109258
:10110000B7010ACF10920B0234CFE7E3F2E013826B
:10111000128288EE93E0A0E0B0E084839583A683FA
:10112000B7838AE191E091838083EDE4F2E013825A
:1011300012828CE291E09183808387E2848380E154
:10114000818782E082871386E3E4F2E012821482D0
:10115000138280E890E0968385830895789484B51F
:10116000826084BD84B5816084BD85B5826085BDA3
:1011700085B5816085BD80916E00816080936E0031
:101180001092810080918100826080938100809123
:1011900081008160809381008091800081608093D4
:1011A00080008091B10084608093B1008091B00094
:1011B00081608093B00080917A00846080937A008F
:1011C00080917A00826080937A0080917A008160B9
:1011D00080937A0080917A00806880937A001092E0
:1011E000C1000E949A01809152028860809352024D
:1011F00012E01093550262E370E080E090E00E94FC
:10120000F500609158028DE492E00E94880368EE38
:1012100073E080E090E00E94F50060E38DE492E0EE
:101220000E944C05CBE4D6E4CE010197F1F760E3D0
:101230008DE492E00E944C052197F1F760E38DE484
:1012400092E00E944C0583E592E00197F1F760E29D
:101250008DE492E00E944C0560915202606240E091
:101260008DE492E00E94650584E08093530240E0A3
:101270006CE08DE492E00E94650540E061E08DE461
:1012800092E00E946505CBE3DFE1CE010197F1F723
:101290001093540240E066E08DE492E00E94650500
:1012A00040E062E08DE492E00E9465052197F1F74D
:1012B00088E08093580260E08DE492E00E94880309
:1012C00086E090E00E94BE0CEC0188E4888387E30E
:1012D00092E09A8389831B8280E290E09D838C83D5
:1012E000D0934402C09343020E949A0181E08B8311
:1012F000CE010E94DD02811105C080E491E00E94D0
:10130000B505FFCF80E092E09093470280934602BC
:1013100060E080E00E947C058EE491E00E94B505CB
:101320000BE31FE180E0E82E80E0F82E40E061E072
:101330008DE492E00E946505C8010197F1F760E035
:1013400080E00E947C0580E691E00E94B50580E087
:101350000E941205BC01990F880B990B0E946F0B1C
:1013600020E433E040EA58E30E94240C2CEA3CE1FC
:101370004AE15FE30E94CC0A20E030E040E251E421
:101380000E94240C42E00E94060683E691E00E943F
:10139000B50560E089E00E947C0585E691E00E9449
:1013A000B50582E00E941205BC01990F880B990BCC
:1013B0000E946F0B20E433E040EA58E30E94240CC3
:1013C0002CEA3CE14AE15FE30E94CC0A2FE832ECD0
:1013D00045ED5FE30E945A0A2CEA3BE84BE55CE3EB
:1013E0000E94CC0A42E00E94060688E691E00E9434
:1013F000B50561E080E00E947C058AE691E00E94EC
:10140000B50580E00E941205EC0182E00E94120501
:10141000BC01990F880B990B0E946F0B20E433E0FD
:1014200040EA58E30E94240C2CEA3CE14AE15FE3E5
:101430000E94CC0A2FE832EC45ED5FE30E945A0A85
:101440002CEA3BE84BE55CE30E94CC0A4B015C01D3
:10145000BE01DD0F880B990B0E946F0B20E433E077
:1014600040EA58E30E94240C2CEA3CE14AE15FE3A5
:101470000E94CC0A20E030E040E251E40E94240CBB
:101480009B01AC01C501B4010E94240C42E00E9402
:10149000060681E791E00E94B50568EE73E080E002
:1014A00090E00E94F500E114F10409F43FCF0E949E
:1014B00000003CCF5058BB27AA270E94720A0C9408
:1014C000E50B0E94D70B38F00E94DE0B20F039F4B8
:1014D0009F3F19F426F40C94D40B0EF4E095E7FB2F
:1014E0000C94CE0BE92F0E94F60B58F3BA17620743
:1014F00073078407950720F079F4A6F50C94180C6F
:101500000EF4E0950B2EBA2FA02D0B01B90190011E
:101510000C01CA01A0011124FF27591B99F0593F62
:1015200050F4503E68F11A16F040A22F232F342FAA
:101530004427585FF3CF469537952795A795F040F8
:101540005395C9F77EF41F16BA0B620B730B840B0D
:10155000BAF09150A1F0FF0FBB1F661F771F881FC5
:10156000C2F70EC0BA0F621F731F841F48F487951D
:1015700077956795B795F7959E3F08F0B0CF93950F
:10158000880F08F09927EE0F9795879508950E9488
:10159000AA0B08F481E008950E94E00A0C94E50B80
:1015A0000E94DE0B58F00E94D70B40F029F45F3FF9
:1015B00029F00C94CE0B51110C94190C0C94D40BF3
:1015C0000E94F60B68F39923B1F3552391F3951B11
:1015D000550BBB27AA2762177307840738F09F5F54
:1015E0005F4F220F331F441FAA1FA9F335D00E2EC1
:1015F0003AF0E0E832D091505040E695001CCAF72E
:101600002BD0FE2F29D0660F771F881FBB1F2617F0
:1016100037074807AB07B0E809F0BB0B802DBF01C7
:10162000FF2793585F4F3AF09E3F510578F00C9496
:10163000CE0B0C94190C5F3FE4F3983ED4F38695DF
:1016400077956795B795F7959F5FC9F7880F911DB7
:101650009695879597F90895E1E0660F771F881FA3
:10166000BB1F621773078407BA0720F0621B730B56
:10167000840BBA0BEE1F88F7E09508950E94FE0BCD
:1016800088F09F5798F0B92F9927B751B0F0E1F043
:10169000660F771F881F991F1AF0BA95C9F714C0F3
:1016A000B13091F00E94180CB1E008950C94180C20
:1016B000672F782F8827B85F39F0B93FCCF386952C
:1016C00077956795B395D9F73EF490958095709589
:1016D00061957F4F8F4F9F4F0895E89409C097FB06
:1016E0003EF490958095709561957F4F8F4F9F4FF9
:1016F0009923A9F0F92F96E9BB279395F69587953D
:1017000077956795B795F111F8CFFAF4BB0F11F4FF
:1017100060FF1BC06F5F7F4F8F4F9F4F16C08823A6
:1017200011F096E911C0772321F09EE8872F762FDC
:1017300005C0662371F096E8862F70E060E02AF01D
:101740009A95660F771F881FDAF7880F9695879509
:1017500097F90895990F0008550FAA0BE0E8FEEFDE
:1017600016161706E807F907C0F012161306E40765
:10177000F50798F0621B730B840B950B39F40A265E
:1017800061F0232B242B252B21F408950A2609F43C
:10179000A140A6958FEF811D811D089597F99F6740
:1017A00080E870E060E008959FEF80EC08950024E9
:1017B0000A941616170618060906089500240A94B6
:1017C00012161306140605060895092E0394000C3C
:1017D00011F4882352F0BB0F40F4BF2B11F460FFCB
:1017E00004C06F5F7F4F8F4F9F4F089557FD9058F4
:1017F000440F551F59F05F3F71F04795880F97FBD5
:10180000991F61F09F3F79F087950895121613068E
:101810001406551FF2CF4695F1DF08C016161706BD
:101820001806991FF1CF86957105610508940895F2
:10183000E894BB2766277727CB0197F908950E9484
:10184000AA0B08F48FEF08950E94370C0C94E50B57
:101850000E94D70B38F00E94DE0B20F0952311F088
:101860000C94CE0B0C94D40B11240C94190C0E94E4
:10187000F60B70F3959FC1F3950F50E0551F629FD3
:10188000F001729FBB27F00DB11D639FAA27F00DD9
:10189000B11DAA1F649F6627B00DA11D661F829F00
:1018A0002227B00DA11D621F739FB00DA11D621FE5
:1018B000839FA00D611D221F749F3327A00D611D02
:1018C000231F849F600D211D822F762F6A2F1124E4
:1018D0009F5750409AF0F1F088234AF0EE0FFF1F17
:1018E000BB1F661F771F881F91505040A9F79E3F6E
:1018F000510580F00C94CE0B0C94190C5F3FE4F36F
:10190000983ED4F3869577956795B795F795E795C3
:101910009F5FC1F7FE2B880F911D9695879597F9CC
:1019200008950E94AA0B880B990B0895A1E21A2E24
:10193000AA1BBB1BFD010DC0AA1FBB1FEE1FFF1F73
:10194000A217B307E407F50720F0A21BB30BE40BC3
:10195000F50B661F771F881F991F1A9469F760950A
:101960007095809590959B01AC01BD01CF010895C4
:10197000EE0FFF1F0590F491E02D09940F931F9334
:10198000CF93DF938230910510F482E090E0E091F4
:101990005B02F0915C0230E020E0B0E0A0E0309724
:1019A00099F42115310509F44AC0281B390B24305C
:1019B0003105D8F58A819B816115710589F1FB019B
:1019C00093838283FE0111C0408151810281138182
:1019D00048175907E0F04817590799F4109761F034
:1019E00012960C93129713961C933296CF01DF91A7
:1019F000CF911F910F91089500935B0210935C02A9
:101A0000F4CF2115310551F04217530738F0A901E1
:101A1000DB019A01BD01DF01F801C1CFEF01F9CF70
:101A200090935C0280935B02CDCFFE01E20FF31F27
:101A3000819391932250310939832883D7CF209104
:101A4000590230915A02232B41F420910201309126
:101A5000030130935A0220935902209100013091E2
:101A600001012115310541F42DB73EB74091040124
:101A700050910501241B350BE0915902F0915A0257
:101A8000E217F307A0F42E1B3F0B2817390778F055
:101A9000AC014E5F5F4F2417350748F04E0F5F1FB4
:101AA00050935A0240935902819391939FCFF0E053
:101AB000E0E09CCFCF93DF930097E9F0FC013297F1
:101AC00013821282A0915B02B0915C02ED0130E0C2
:101AD00020E01097A1F420813181820F931F209183
:101AE000590230915A022817390709F061C0F09362
:101AF0005A02E0935902DF91CF910895EA01CE177F
:101B0000DF07E8F54A815B819E0141155105B1F778
:101B1000E901FB83EA8349915991C40FD51FEC1762
:101B2000FD0761F4808191810296840F951FE90180
:101B300099838883828193819B838A83F0E0E0E0AC
:101B400012968D919C9113970097B9F52D913C9128
:101B50001197CD010296820F931F20915902309167
:101B60005A022817390739F6309751F510925C025E
:101B700010925B02B0935A02A0935902BCCFD38358
:101B8000C28340815181840F951FC817D90761F422
:101B90004E5F5F4F88819981480F591F5183408361
:101BA0008A819B81938382832115310509F0B0CF0F
:101BB000F0935C02E0935B029ECFFD01DC01C0CF9D
:0A1BC00013821282D7CFF894FFCFF2
:101BCA0000005D0280000000400014005400004044
:101BDA000050006000700000000059032C039C03B1
:101BEA00020325031203030300000000AF052701C7
:101BFA009C0354016E616E00696E66006F76660022
:101C0A00546964616B2061646120414453004D65ED
:101C1A006E67616D62696C20646174612E2E2E009C
:101C2A00563A005600493A004100506F7765723AB9
:041C3A00005700004F
:00000001FF
